:100000000C9462000C948A000C948A000C948A0070
:100010000C948A000C948A000C948A000C948A0038
:100020000C948A000C948A000C948A000C948A0028
:100030000C948A000C948A000C948A000C948A0018
:100040000C94F9030C948A000C94C7030C94A1033C
:100050000C948A000C948A000C948A000C948A00F8
:100060000C948A000C948A000000000023002600F3
:10007000290000000008000201000003040700003E
:1000800000000000000000000000250028002B00F8
:1000900000000000240027002A00040404040404D3
:1000A0000404020202020202030303030303010227
:1000B00004081020408001020408102001020408F6
:1000C0001020650511241FBECFEFD8E0DEBFCDBFE5
:1000D00011E0A0E0B1E0E0EFFFE002C005900D927A
:1000E000AE38B107D9F722E0AEE8B1E001C01D9209
:1000F000A633B207E1F710E0C2E6D0E004C02197D2
:10010000FE010E94F007C136D107C9F70E944304DF
:100110000C94F6070C940000CF93DF9390E0FC0161
:10012000E255FF4F249186569F4FFC01849188230E
:10013000C1F090E0880F991FFC01E057FF4FC59177
:10014000D491FC01EA57FF4FA591B4919FB7F89461
:100150003881822F809583238883EC91E22BEC9366
:100160009FBFDF91CF910895AF92BF92CF92DF9260
:10017000EF92FF920F931F93CF93DF936C017B015C
:100180008B01040F151FEB015E01AE18BF08C017ED
:10019000D10759F06991D601ED91FC910190F08160
:1001A000E02DC6010995892B79F7C501DF91CF9123
:1001B0001F910F91FF90EF90DF90CF90BF90AF9085
:1001C0000895FC01538D448D252F30E0842F90E05D
:1001D000821B930B541710F0CF9608950197089542
:1001E000FC01918D828D981761F0A28DAE0FBF2F0B
:1001F000B11D5D968C91928D9F5F9F73928F90E061
:1002000008958FEF9FEF0895FC01918D828D9817CF
:1002100031F0828DE80FF11D858D90E008958FEF0C
:100220009FEF0895FC01918D228D892F90E0805CD5
:100230009F4F821B91098F739927089589E991E057
:100240000E94120121E0892B09F420E0822F0895F9
:1002500080E090E0892B29F00E941E0181110C940E
:1002600000000895FC01A48DA80FB92FB11DA35A59
:10027000BF4F2C91848D90E001968F739927848FC6
:10028000A689B7892C93A089B1898C9183708064E9
:100290008C93938D848D981306C00288F389E02D8A
:1002A00080818F7D80830895EF92FF920F931F933B
:1002B000CF93DF93EC0181E0888F9B8D8C8D981319
:1002C0001AC0E889F989808185FF15C09FB7F89425
:1002D000EE89FF896083E889F98980818370806471
:1002E00080839FBF81E090E0DF91CF911F910F91BC
:1002F000FF90EF900895F62E0B8D10E00F5F1F4FCB
:100300000F731127E02E8C8D8E110CC00FB607FCD9
:10031000FACFE889F989808185FFF5CFCE010E9467
:100320003201F1CFEB8DEC0FFD2FF11DE35AFF4FA2
:10033000F0829FB7F8940B8FEA89FB8980818062F5
:10034000CFCFCF93DF93EC01888D8823B9F0AA89B2
:10035000BB89E889F9898C9185FD03C0808186FD80
:100360000DC00FB607FCF7CF8C9185FFF2CF8081CF
:1003700085FFEDCFCE010E943201E9CFDF91CF9111
:10038000089590E0FC01EE58FF4F2491FC01E255E6
:10039000FF4F3491FC01E656FF4FE491EE23C1F18B
:1003A000222339F02330E9F090F4213001F122309A
:1003B00011F1F0E0EE0FFF1FE859FF4FA591B49146
:1003C000EC91E32381E090E029F580E00895273067
:1003D000A9F02830C9F0243061F7809180008F7D2A
:1003E00003C0809180008F7780938000E2CF84B536
:1003F0008F7784BDDECF84B58F7DFBCF8091B00039
:100400008F778093B000D5CF8091B0008F7DF9CFEA
:1004100080E090E008953FB7F89480919301909127
:100420009401A0919501B091960126B5A89B05C0B5
:100430002F3F19F00196A11DB11D3FBFBA2FA92F63
:10044000982F8827BC01CD01620F711D811D911D60
:1004500042E0660F771F881F991F4A95D1F70895CC
:100460008F929F92AF92BF92CF92DF92EF92FF92C4
:100470000E940B024B015C018CE2C82EDD24D39458
:10048000E12CF12C0E940B02681979098A099B0959
:10049000683E734081059105A8F321E0C21AD10896
:1004A000E108F10888EE880E83E0981EA11CB11CBB
:1004B000C114D104E104F10429F7FF90EF90DF901B
:1004C000CF90BF90AF909F908F900895FC010190C6
:1004D0000020E9F73197AF01481B590BBC0189E9AE
:1004E00091E00C94B4008F929F92AF92BF920F93C1
:1004F0001F93CF93DF93CDB7DEB7A1970FB6F894D4
:10050000DEBF0FBECDBF19A2423008F44AE08E0113
:100510000F5D1F4F842E912CB12CA12CA5019401AD
:100520000E94CE07E62FB901CA01EA30F4F4E05D7B
:10053000D801EE938D01232B242B252B79F790E006
:1005400080E0109719F0CD010E946602A1960FB6C7
:10055000F894DEBF0FBECDBFDF91CF911F910F91F9
:10056000BF90AF909F908F900895E95CE1CFCF93BB
:10057000DF930E946602EC0186E391E00E9466022E
:100580008C0F9D1FDF91CF9108954F925F926F92D4
:100590007F928F929F92AF92BF92CF92DF92EF9213
:1005A000FF920F931F93CF936B017C01742EAC01CC
:1005B0009B010E94C907882399F089E391E0CF91BC
:1005C0001F910F91FF90EF90DF90CF90BF90AF9071
:1005D0009F908F907F906F905F904F900C946602E9
:1005E00046015701E894B7F82FEF3FEF4FE75FE779
:1005F000C501B4010E94C90781110DC02FEF3FEF63
:100600004FE75FE7C501B4010E94FF0518161CF40F
:100610008DE391E0D4CF2FEF3FEF4FE75FE4C701C9
:10062000B6010E94570718161CF481E491E0C7CF69
:100630002FEF3FEF4FE75FECC701B6010E94FF05C8
:1006400087FDF3CF20E030E0A901C701B6010E9489
:10065000FF0510E000E087FF0AC06DE289E991E044
:100660000E9454018C01F7FAF094F7F8F094C0E07E
:1006700060E070E080E09FE37C1641F020E030E035
:1006800040E251E40E940406CF5FF6CFA701960135
:100690000E9493052B013C010E9476064B015C01F0
:1006A0004AE00E9473027C01E00EF11ECC23C1F1EE
:1006B000C501B4010E94A5069B01AC01C301B201B2
:1006C0000E9492054B015C016EE289E991E00E9473
:1006D0005401E80EF91EC15018F120E030E040E26C
:1006E00051E4C501B4010E945C072B013C010E944A
:1006F00076064B01B12CA12C4AE0C501B4010E9441
:100700007302E80EF91EC501B4010E94A5069B0103
:10071000AC01C301B2010E9492054B015C01DBCF29
:10072000C701CF911F910F91FF90EF90DF90CF9075
:10073000BF90AF909F908F907F906F905F904F9001
:1007400008951F920F920FB60F9211242F933F938B
:100750004F935F936F937F938F939F93AF93BF93C9
:10076000EF93FF9389E991E00E943201FF91EF91AD
:10077000BF91AF919F918F917F916F915F914F91B9
:100780003F912F910F900FBE0F901F9018951F92C1
:100790000F920FB60F9211242F938F939F93EF9385
:1007A000FF93E091A901F091AA018081E091AF014E
:1007B000F091B00182FD1BC090818091B2018F5FEA
:1007C0008F732091B301821741F0E091B201F0E004
:1007D000E756FE4F958F8093B201FF91EF919F9165
:1007E0008F912F910F900FBE0F901F9018958081C1
:1007F000F4CF1F920F920FB60F9211242F933F93B5
:100800008F939F93AF93BF9380918F0190919001AD
:10081000A0919101B091920130918E0123E0230FBC
:100820002D3758F50196A11DB11D20938E0180939F
:100830008F0190939001A0939101B09392018091C8
:10084000930190919401A0919501B0919601019628
:10085000A11DB11D8093930190939401A0939501E4
:10086000B0939601BF91AF919F918F913F912F913E
:100870000F900FBE0F901F90189526E8230F029639
:10088000A11DB11DD2CF789484B5826084BD84B59A
:10089000816084BD85B5826085BD85B5816085BD7B
:1008A00080916E00816080936E0010928100809133
:1008B00081008260809381008091810081608093BB
:1008C0008100809180008160809380008091B100E0
:1008D00084608093B1008091B00081608093B0000B
:1008E00080917A00846080937A0080917A0082609F
:1008F00080937A0080917A00816080937A00809161
:100900007A00806880937A001092C10082E00E9491
:100910008C0083E00E948C00E091A901F091AA0173
:1009200082E08083E091A501F091A6011082E09120
:10093000A701F091A8018FEC80831092B101E091A2
:10094000AD01F091AE0186E08083E091AB01F091C2
:10095000AC01808180618083E091AB01F091AC01BA
:10096000808188608083E091AB01F091AC0180814F
:1009700080688083E091AB01F091AC0180818F7D34
:10098000808385E491E00E94B702C0E0D0E001E0FE
:1009900010E084E0A82EB12C82E00E94C101E0901A
:1009A0009701F09098018FEFE81AF80AF0929801F9
:1009B000E09297010E94300285E0E816F10424F0ED
:1009C000109398010093970183E00E94C101E09089
:1009D0009701F090980181E0E81AF108F0929801EF
:1009E000E09297010E9430021E141F046CF0B09236
:1009F0009801A0929701209779F20E941E01882306
:100A000059F20E940000C8CF8091970190919801FF
:100A1000019789F78BE691E00E94B70280E091E0B0
:100A20000E94B7028AE891E00E94660260911E016E
:100A300070911F01809120019091210142E00E945C
:100A4000C50286E391E00E946602C0901C01D0902E
:100A50001D010D2C000CEE08FF084AE0C701B6018D
:100A6000F7FE0DC06DE289E991E00E94540166270E
:100A70007727CB016C197D098E099F094AE00E94F6
:100A8000730286E391E00E94660289E091E00E9491
:100A9000B70260911C0170911D01072E000C880B9C
:100AA000990B0E94A70620911E0130911F014091D1
:100AB0002001509121010E945C0742E00E94C50282
:100AC00086E391E00E9466029FCFE9E9F1E013829C
:100AD000128288EE93E0A0E0B0E084839583A68341
:100AE000B78388E291E09183808385EC90E09587DD
:100AF000848784EC90E09787868780EC90E0918BE8
:100B0000808B81EC90E0938B828B82EC90E0958BD4
:100B1000848B86EC90E0978B868B118E128E138ED1
:100B2000148E08955058BB27AA270E94AA050C943A
:100B30001D070E940F0738F00E94160720F039F4B5
:100B40009F3F19F426F40C940C070EF4E095E7FB94
:100B50000C940607E92F0E942E0758F3BA17620774
:100B600073078407950720F079F4A6F50C945007D5
:100B70000EF4E0950B2EBA2FA02D0B01B9019001B8
:100B80000C01CA01A0011124FF27591B99F0593FFC
:100B900050F4503E68F11A16F040A22F232F342F44
:100BA0004427585FF3CF469537952795A795F04092
:100BB0005395C9F77EF41F16BA0B620B730B840BA7
:100BC000BAF09150A1F0FF0FBB1F661F771F881F5F
:100BD000C2F70EC0BA0F621F731F841F48F48795B7
:100BE00077956795B795F7959E3F08F0B0CF9395A9
:100BF000880F08F09927EE0F9795879508950E9422
:100C0000E20608F481E008950E9418060C941D077E
:100C10000E94160758F00E940F0740F029F45F3F2A
:100C200029F00C94060751110C9451070C940C07F1
:100C30000E942E0768F39923B1F3552391F3951B76
:100C4000550BBB27AA2762177307840738F09F5FED
:100C50005F4F220F331F441FAA1FA9F335D00E2E5A
:100C60003AF0E0E832D091505040E695001CCAF7C7
:100C70002BD0FE2F29D0660F771F881FBB1F26178A
:100C800037074807AB07B0E809F0BB0B802DBF0161
:100C9000FF2793585F4F3AF09E3F510578F00C9430
:100CA00006070C9451075F3FE4F3983ED4F3869512
:100CB00077956795B795F7959F5FC9F7880F911D51
:100CC0009695879597F90895E1E0660F771F881F3D
:100CD000BB1F621773078407BA0720F0621B730BF0
:100CE000840BBA0BEE1F88F7E09508950E94360733
:100CF00088F09F5798F0B92F9927B751B0F0E1F0DD
:100D0000660F771F881F991F1AF0BA95C9F714C08C
:100D1000B13091F00E945007B1E008950C94500753
:100D2000672F782F8827B85F39F0B93FCCF38695C5
:100D300077956795B395D9F73EF490958095709522
:100D400061957F4F8F4F9F4F0895E89409C097FB9F
:100D50003EF490958095709561957F4F8F4F9F4F92
:100D60009923A9F0F92F96E9BB279395F6958795D6
:100D700077956795B795F111F8CFFAF4BB0F11F499
:100D800060FF1BC06F5F7F4F8F4F9F4F16C0882340
:100D900011F096E911C0772321F09EE8872F762F76
:100DA00005C0662371F096E8862F70E060E02AF0B7
:100DB0009A95660F771F881FDAF7880F96958795A3
:100DC00097F90895990F0008550FAA0BE0E8FEEF78
:100DD00016161706E807F907C0F012161306E407FF
:100DE000F50798F0621B730B840B950B39F40A26F8
:100DF00061F0232B242B252B21F408950A2609F4D6
:100E0000A140A6958FEF811D811D089597F99F67D9
:100E100080E870E060E008959FEF80EC0895002482
:100E20000A941616170618060906089500240A944F
:100E300012161306140605060895092E0394000CD5
:100E400011F4882352F0BB0F40F4BF2B11F460FF64
:100E500004C06F5F7F4F8F4F9F4F089557FD90588D
:100E6000440F551F59F05F3F71F04795880F97FB6E
:100E7000991F61F09F3F79F0879508951216130628
:100E80001406551FF2CF4695F1DF08C01616170657
:100E90001806991FF1CF869571056105089408958C
:100EA000E894BB2766277727CB0197F908950E941E
:100EB000E20608F48FEF08950E946F070C941D0757
:100EC0000E940F0738F00E94160720F0952311F0BA
:100ED0000C9406070C940C0711240C9451070E94E3
:100EE0002E0770F3959FC1F3950F50E0551F629F39
:100EF000F001729FBB27F00DB11D639FAA27F00D73
:100F0000B11DAA1F649F6627B00DA11D661F829F99
:100F10002227B00DA11D621F739FB00DA11D621F7E
:100F2000839FA00D611D221F749F3327A00D611D9B
:100F3000231F849F600D211D822F762F6A2F11247D
:100F40009F5750409AF0F1F088234AF0EE0FFF1FB0
:100F5000BB1F661F771F881F91505040A9F79E3F07
:100F6000510580F00C9406070C9451075F3FE4F3A1
:100F7000983ED4F3869577956795B795F795E7955D
:100F80009F5FC1F7FE2B880F911D9695879597F966
:100F900008950E94E206880B990B0895A1E21A2E8B
:100FA000AA1BBB1BFD010DC0AA1FBB1FEE1FFF1F0D
:100FB000A217B307E407F50720F0A21BB30BE40B5D
:100FC000F50B661F771F881F991F1A9469F76095A4
:100FD0007095809590959B01AC01BD01CF0108955E
:100FE000EE0FFF1F0590F491E02D0994F894FFCFC8
:100FF00043686F636F6C61746553692074656E67D5
:101000006F20656E206C6120626F646532000000A5
:1010100060400000000000005401B400E100A101A4
:101020001201F00004010D0A006E616E00696E6627
:10103000006F7666004269656E76656E69646F73EF
:101040002061206C61206D617175696E612064653D
:1010500020676F6C6F73696E6173002A2A2A2A2ACF
:101060002A2A2A2A2A2A2A2A2A2A2A2A2A2A2A2AE0
:0E1070002A2A2A2A2A2A2A2A2A00512E000079
:00000001FF
